:100000000C942A000C948C0C0C9447000C94470020
:100010000C9447000C9447000C9447000C94470044
:100020000C9447000C9447000C94F2070C948E0734
:100030000C9447000C9447000C9447000C94470024
:100040000C9447000C9447000C9447000C94470014
:100050000C94470011241FBECFE5D8E0DEBFCDBF12
:1000600011E0A0E6B0E0E6E2FAE302C005900D92EE
:10007000AA30B107D9F711E0AAE0B1E001C01D92A2
:10008000AF31B107E1F70E94771A0C94111D0C945F
:100090000000EF92FF920F931F937B018C0120E0F1
:1000A00030E040E05FE40E94490388238CF0C801FF
:1000B000B70120E030E040E05FE40E94C1010E940F
:1000C000A9039B01AC01205030404040504806C07D
:1000D000C801B7010E94A9039B01AC01B901CA0183
:1000E0001F910F91FF90EF900895A0E0B0E0EBE733
:1000F000F0E00C94D11CDC012B01FA019C919230B0
:1001000008F439C1EB018881823008F433C194309E
:1001100069F4843009F02FC111969C91119789815F
:10012000981709F428C1A7EEB0E025C1843009F47E
:1001300021C18230A9F4923009F01DC19A01AD01AC
:1001400088E0EA010990AE01E90109929E0181501F
:10015000C1F7E201898111969C918923818308C1AD
:10016000923009F407C112962D903C901397EB0141
:100170008A819B811496AD90BD90CD90DC901797AD
:10018000EC80FD800E811F819101281B390BB90184
:1001900037FF04C066277727621B730B6032710537
:1001A0000CF061C0121613066CF537014801062EDB
:1001B00004C096948794779467940A94D2F721E0C8
:1001C00030E040E050E004C0220F331F441F551FB1
:1001D0006A95D2F721503040404050402E213F21B7
:1001E00040235123211531054105510521F021E01E
:1001F00030E040E050E079018A01E628F72808293C
:1002000019293CC0232BD1F1260E371E350146019A
:10021000062E04C096948794779467940A94D2F734
:1002200021E030E040E050E004C0220F331F441FC3
:10023000551F6A95D2F721503040404050402A2146
:100240003B214C215D21211531054105510521F04E
:1002500021E030E040E050E059016A01A628B728CB
:10026000C828D9280BC0821593052CF01C01AA249C
:10027000BB24650103C0EE24FF24870111969C91E5
:10028000D20111968C91981709F445C0992339F041
:10029000A80197012A193B094C095D0906C0A6016E
:1002A00095012E193F09400B510B57FD08C01182D3
:1002B0003382228224833583468357831DC081E0A5
:1002C00081833382228288279927DC01821B930B4A
:1002D000A40BB50B84839583A683B7830DC0220F2F
:1002E000331F441F551F24833583468357838281E0
:1002F000938101979383828324813581468157813D
:10030000DA01C9010197A109B1098F5F9F4FAF4F72
:10031000BF4328F30BC0918333822282EA0CFB1C7B
:100320000C1D1D1DE482F5820683178383E0808304
:10033000248135814681578157FF1AC0C901AA27F8
:1003400097FDA095BA2F81709070A070B0705695EF
:10035000479537952795822B932BA42BB52B848318
:100360009583A683B7838281938101969383828349
:10037000DF0101C0D201CD01CDB7DEB7E2E10C94BF
:10038000ED1CA0E2B0E0E7ECF1E00C94DD1C698329
:100390007A838B839C832D833E834F835887E9E048
:1003A000EE2EF12CEC0EFD1ECE010196B7010E943F
:1003B000D2048E010F5E1F4FCE010596B8010E9438
:1003C000D2048A8991E089278A8BC701B801AE01DE
:1003D000475E5F4F0E9475000E94FD03A096E6E015
:1003E0000C94F91CA0E2B0E0E8EFF1E00C94DD1C05
:1003F00069837A838B839C832D833E834F835887C5
:10040000F9E0EF2EF12CEC0EFD1ECE010196B701A6
:100410000E94D2048E010F5E1F4FCE010596B801D7
:100420000E94D204C701B801AE01475E5F4F0E942F
:1004300075000E94FD03A096E6E00C94F91CA0E272
:10044000B0E0E5E2F2E00C94D11C69837A838B83FF
:100450009C832D833E834F835887CE010196BE0136
:10046000675F7F4F0E94D204CE010596BE016F5E8A
:100470007F4F0E94D2049985923088F0898982301A
:10048000C8F0943019F4823051F404C0843029F457
:10049000923081F487EE90E0C6C0923049F420E0BB
:1004A0009A858A89981321E02A87CE010996BBC0D4
:1004B000823049F420E09A858A89981321E02A8BBA
:1004C000CE014196B0C02D843E844F8458886D88FB
:1004D0007E888F88988CEE24FF248701AA24BB2471
:1004E000650140E050E060E070E0E0E0F0E0C10174
:1004F00081709070892BE9F0E60CF71C081D191D1E
:100500009A01AB012A0D3B1D4C1D5D1D80E090E062
:10051000A0E0B0E0E614F7040805190520F481E036
:1005200090E0A0E0B0E0BA01A901480F591F6A1F8E
:100530007B1FAA0CBB1CCC1CDD1C97FE08C081E0F5
:1005400090E0A0E0B0E0A82AB92ACA2ADB2A3196B6
:10055000E032F10549F0660C771C881C991C569412
:10056000479437942794C3CFFA85EA892B893C892D
:100570008B859C85280F391F2E5F3F4F17C0CA01FE
:1005800081709070892B61F016950795F794E79428
:1005900080E090E0A0E0B0E8E82AF92A0A2B1B2BC3
:1005A00076956795579547952F5F3F4F77FDE7CF36
:1005B0000CC0440F551F661F771F17FD4160EE0CDE
:1005C000FF1C001F111F21503040403090E05907A0
:1005D00090E0690790E4790760F32B8F3C8FDB0193
:1005E000CA018F779070A070B07080349105A1051A
:1005F000B10561F447FD0AC0E114F10401051105DC
:1006000029F0405C5F4F6F4F7F4F40781A8EFE1786
:1006100011F081E08A8F4D8F5E8F6F8F78A383E01A
:10062000898FCE0149960E94FD03A096E2E10C94C9
:10063000ED1CA8E1B0E0EFE1F3E00C94DD1C698370
:100640007A838B839C832D833E834F83588789E0F5
:10065000E82EF12CEC0EFD1ECE010196B7010E9492
:10066000D2048E010F5E1F4FCE010596B8010E9485
:10067000D2048985823040F08989823028F0C70110
:10068000B8010E944A0501C08FEF6896E6E00C941D
:10069000F91CA8E1B0E0EFE4F3E00C94DD1C698301
:1006A0007A838B839C832D833E834F83588789E095
:1006B000E82EF12CEC0EFD1ECE010196B7010E9432
:1006C000D2048E010F5E1F4FCE010596B8010E9425
:1006D000D2048985823040F08989823028F0C701B0
:1006E000B8010E944A0501C08FEF6896E6E00C94BD
:1006F000F91CA8E1B0E0EFE7F3E00C94DD1C69839E
:100700007A838B839C832D833E834F83588789E034
:10071000E82EF12CEC0EFD1ECE010196B7010E94D1
:10072000D2048E010F5E1F4FCE010596B8010E94C4
:10073000D2048985823040F08989823028F0C7014F
:10074000B8010E944A0501C081E06896E6E00C9479
:10075000F91CACE0B0E0EFEAF3E00C94E11C698333
:100760007A838B839C83CE010196BE016B5F7F4FA2
:100770000E94D2048D81823061F1823050F1843048
:1007800021F48E81882351F12EC02F81388537FDC9
:1007900020C06E812F3131051CF06623F9F023C093
:1007A0008EE190E0821B930B29853A854B855C8511
:1007B00004C056954795379527958A95D2F76623B5
:1007C000B1F050954095309521953F4F4F4F5F4F79
:1007D0000EC020E030E040E050E009C02FEF3FEFD6
:1007E0004FEF5FE704C020E030E040E050E8B9019F
:1007F000CA012C96E2E00C94FD1CDF92EF92FF926E
:100800000F931F93FC01E480F58006811781D1804E
:100810008081823048F480E090E0A0E1B0E0E82AF6
:10082000F92A0A2B1B2BA5C0843009F49FC0823003
:1008300021F4EE24FF24870105C0E114F104010531
:10084000110519F4E0E0F0E096C0628173819FEF3A
:10085000623879070CF05BC022E83FEF261B370BAC
:100860002A3131052CF020E030E040E050E02AC091
:10087000B801A701022E04C0769567955795479554
:100880000A94D2F781E090E0A0E0B0E004C0880FC5
:10089000991FAA1FBB1F2A95D2F70197A109B10979
:1008A0008E219F21A023B1230097A105B10521F03E
:1008B00081E090E0A0E0B0E09A01AB01282B392B59
:1008C0004A2B5B2BDA01C9018F779070A070B07052
:1008D00080349105A105B10539F427FF09C0205CDA
:1008E0003F4F4F4F5F4F04C0215C3F4F4F4F5F4F13
:1008F000E0E0F0E02030A0E03A07A0E04A07A0E402
:100900005A0710F0E1E0F0E079018A0127C0603871
:10091000710564F5FB01E158FF4FD801C7018F77DE
:100920009070A070B07080349105A105B10539F4C4
:10093000E7FE0DC080E490E0A0E0B0E004C08FE3EB
:1009400090E0A0E0B0E0E80EF91E0A1F1B1F17FFA1
:1009500005C016950795F794E794319687E01695AC
:100960000795F794E7948A95D1F705C0EE24FF2404
:100970008701EFEFF0E06E2F679566276795902F60
:100980009F77D794DD24D7948E2F8695492F462BB9
:10099000582F5D29B701CA011F910F91FF90EF9069
:1009A000DF900895FC01DB01408151812281622F9B
:1009B0006F7770E0221F2227221F9381892F880FD3
:1009C000822B282F30E0991F9927991F11969C930D
:1009D000119721153105A9F54115510561057105DD
:1009E00011F482E037C082E89FEF13969C938E93B8
:1009F00012979A01AB0167E0220F331F441F551F66
:100A00006A95D1F783E08C930DC0220F331F441FEA
:100A1000551F12968D919C911397019713969C9355
:100A20008E931297203080E0380780E0480780E4FA
:100A3000580758F314962D933D934D935C93179755
:100A400008952F3F310579F4411551056105710570
:100A500019F484E08C93089564FF03C081E08C93C3
:100A600012C01C9210C02F57304013963C932E9307
:100A7000129783E08C9387E0440F551F661F771F02
:100A80008A95D1F7706414964D935D936D937C9322
:100A9000179708951F93DC01FB019C91923008F495
:100AA00047C08081823008F443C0943051F41196DD
:100AB0001C91843099F58181682F70E0611B710968
:100AC0003FC0843021F0923031F48230B9F181811D
:100AD000882389F12DC011961C9111978230F1F075
:100AE00081811817D9F412962D913C911397828128
:100AF00093818217930794F028173907BCF0149656
:100B00008D919D910D90BC91A02D248135814681C0
:100B10005781281739074A075B0718F4112341F05A
:100B20000AC082179307A407B50740F4112319F0F0
:100B300061E070E005C06FEF7FEF02C060E070E041
:100B4000CB011F910895DF93CF9300D000D0CDB794
:100B5000DEB781E08C83ABE2B0E0EBE2F0E08081D5
:100B60008D7F8C93AAE2B0E0EAE2F0E080818061C0
:100B70008C931B828B8186608B838B818F7C8B8394
:100B80008B8188608B838B818F7B8B838B8180684B
:100B90008B83E0E4F0E08B81808387E690E09A83AA
:100BA000898389819A819F779A838983E9E2F0E03A
:100BB00089818083E0E4F0E089819A81892F9927F7
:100BC00080838C810F900F900F900F90CF91DF91C9
:100BD0000895DF93CF9300D0CDB7DEB78A8381E04D
:100BE0008983EBE2F0E08081829586958770882F7B
:100BF00090E0817090700097A1F3ECE2F0E08A81C0
:100C0000808389810F900F90CF91DF910895DF93BA
:100C1000CF9300D00F92CDB7DEB79B838A8381E05C
:100C20008983EBE2F0E080818823DCF7ECE2F0E0FE
:100C30008081EA81FB81808389810F900F900F90E2
:100C4000CF91DF910895DF93CF9300D00F92CDB76E
:100C5000DEB79B838A8381E0898317C0EBE2F0E0F3
:100C60008081829586958770882F90E08170907042
:100C70000097A1F3ACE2B0E0EA81FB8180818C9324
:100C80008A819B8101969B838A83EA81FB81808193
:100C9000882321F789810F900F900F90CF91DF91DA
:100CA0000895DF93CF9300D000D00F92CDB7DEB779
:100CB0009D838C8381E08B831A82EBE2F0E080815C
:100CC0008823DCF7ECE2F0E080818983EBE2F0E05E
:100CD0008081829586958770882F90E081709070D2
:100CE0000097A1F3ECE2F0E08981808326C08A813D
:100CF000282F30E08C819D81FC01E20FF31F898158
:100D000080838A818F5F8A83EBE2F0E08081882391
:100D1000DCF7ECE2F0E080818983EBE2F0E08081B7
:100D2000829586958770882F90E0817090700097EB
:100D3000A1F3ECE2F0E08981808389818D3031F08C
:100D400089818A3019F08981882389F68A81282F40
:100D500030E08C819D81FC01E20FF31F10828B81BA
:100D60000F900F900F900F900F90CF91DF910895FB
:100D7000DF93CF930F92CDB7DEB781E08983A3E5F0
:100D8000B0E0E3E5F0E0808188608C93A3E5B0E01B
:100D9000E3E5F0E080818F7B8C93AFE5B0E0EFE599
:100DA000F0E0808180688C93A9E5B0E0E9E5F0E0AF
:100DB000808182608C9389810F90CF91DF9108951B
:100DC000DF93CF93CDB7DEB72E970FB6F894DEBF83
:100DD0000FBECDBF6B877C878D879E8781E08A871A
:100DE00080E490E0A0E0B0E08E839F83A887B9877D
:100DF0008B859C85AD85BE8528EE33E040E050E0D4
:100E0000BC01CD010E944E1CDC01CB012E813F8133
:100E100048855985BC01CD010E94801CDA01C901B9
:100E20008A839B83AC83BD838FEF898303C08981D1
:100E3000815089838981282F30E040E050E08A8109
:100E40009B81AC81BD81BC01CD010E94801CDC0175
:100E5000CB010097A105B10551F78981282F30E01A
:100E600040E050E08A819B81AC81BD81BC01CD0115
:100E70000E94801CDA01C90180930F019093100138
:100E8000A0931101B0931201ECE5F0E0898181504B
:100E900080831A868A852E960FB6F894DEBF0FBE21
:100EA000CDBFCF91DF910895DF93CF930F92CDB750
:100EB000DEB781E08983A3E5B0E0E3E5F0E080817F
:100EC00085608C93198289810F90CF91DF9108956D
:100ED000DF93CF930F92CDB7DEB781E08983A3E58F
:100EE000B0E0E3E5F0E08081887F8C93198289810E
:100EF0000F90CF91DF910895DF93CF9300D0CDB7BE
:100F0000DEB79A83898389819A81909314018093B3
:100F100013010F900F90CF91DF9108951F920F92C0
:100F20000FB60F9211242F933F934F935F936F93BC
:100F30007F938F939F93AF93BF93EF93FF93DF9331
:100F4000CF93CDB7DEB78091150190911601A09196
:100F50001701B09118010196A11DB11D80931501D3
:100F600090931601A0931701B093180120911501D9
:100F700030911601409117015091180180910A019A
:100F800090910B01A0910C01B0910D012817390728
:100F90004A075B07A1F4E0911301F0911401099550
:100FA000109215011092160110921701109218015B
:100FB000E2E5F0E090910E0189E0891B8083CF91FA
:100FC000DF91FF91EF91BF91AF919F918F917F91B1
:100FD0006F915F914F913F912F910F900FBE0F90A6
:100FE0001F9018951F920F920FB60F9211242F93F6
:100FF0003F934F935F936F937F938F939F93AF93A1
:10100000BF93EF93FF93DF93CF93CDB7DEB780917C
:10101000190190911A01A0911B01B0911C01019638
:10102000A11DB11D8093190190931A01A0931B017A
:10103000B0931C012091190130911A0140911B01BC
:1010400050911C0180910F0190911001A09111010C
:10105000B0911201281739074A075B0769F4E0913C
:101060001301F091140109951092190110921A01BF
:1010700010921B0110921C01CF91DF91FF91EF9113
:10108000BF91AF919F918F917F916F915F914F91A0
:101090003F912F910F900FBE0F901F901895DF93E7
:1010A000CF930F92CDB7DEB7A1E3B0E0E1E3F0E07C
:1010B000808180628C93AFE4B0E0EFE4F0E0808167
:1010C0008E7F8C93AFE4B0E0EFE4F0E0808182604B
:1010D0008C93AEE4B0E0EEE4F0E0808188608C9325
:1010E000AEE4B0E0EEE4F0E0808180618C93AFE4A8
:1010F000B0E0EFE4F0E080818F7B8C93AFE4B0E070
:10110000EFE4F0E0808180688C930F90CF91DF91C5
:101110000895DF93CF9300D000D00F92CDB7DEB704
:1011200069837A838B839C830F900F900F900F902D
:101130000F90CF91DF910895DF93CF9300D00F925E
:10114000CDB7DEB78A8381E089830F900F900F902F
:10115000CF91DF910895DF93CF930F92CDB7DEB794
:1011600081E08983A7E3B0E0E7E3F0E08081886075
:101170008C93A3E5B0E0E3E5F0E0808188608C9398
:10118000A3E5B0E0E3E5F0E0808180648C93A3E523
:10119000B0E0E3E5F0E080818F7E8C93A3E5B0E0E2
:1011A000E3E5F0E0808180628C9389810F90CF919C
:1011B000DF910895DF93CF9300D0CDB7DEB78A8358
:1011C00081E089838A818536F0F48A818823D9F089
:1011D000ECE5F0E08A81482F50E0CA019C01220F23
:1011E000331FC9019695982F882797958795821B5D
:1011F000930B840F951F24E630E0B9010E946D1C0B
:10120000CB0181508083198289810F900F90CF91FB
:10121000DF910895DF93CF930F92CDB7DEB781E0D2
:101220008983A3E5B0E0E3E5F0E0808185608C93FD
:10123000198289810F90CF91DF910895DF93CF9329
:101240000F92CDB7DEB781E08983A3E5B0E0E3E597
:10125000F0E08081887F8C93198289810F90CF91F3
:10126000DF910895DF93CF930F92CDB7DEB781E082
:101270008983AFE5B0E0EFE5F0E080818F778C9374
:10128000198289810F90CF91DF910895DF93CF93D9
:101290000F92CDB7DEB781E08983AFE5B0E0EFE52F
:1012A000F0E0808180688C93198289810F90CF91C2
:1012B000DF910895DF93CF930F92CDB7DEB781E032
:1012C0008983AFE5B0E0EFE5F0E080818F778C9324
:1012D000198289810F90CF91DF910895DF93CF9389
:1012E000CDB7DEB72A970FB6F894DEBF0FBECDBFDD
:1012F0009C838B8381E08A838B819C81009709F496
:101300009AC1198290C18981282F30E0C901880FC4
:10131000991F280F391F8B819C81FC01E20FF31F5D
:101320008081882309F07EC08981282F30E0C9019F
:10133000880F991F280F391F8B819C81FC01E20FB8
:10134000F31F8181813041F4ABE5B0E0EBE5F0E0E3
:10135000808180648C9317C08981282F30E0C90177
:10136000880F991F280F391F8B819C81FC01E20F88
:10137000F31F8181882339F4ABE5B0E0EBE5F0E0C1
:1013800080818F7B8C938981282F30E0C901880F61
:10139000991F280F391F8B819C81FC01E20FF31FDD
:1013A0008281282F30E03A87298789859A85813084
:1013B0009105E9F029853A85223031052CF489859B
:1013C0009A85009761F02BC029853A852230310536
:1013D000B1F089859A8583309105C9F020C0A5E5D3
:1013E000B0E0E5E5F0E080818C7F8C9319C1A5E544
:1013F000B0E0E5E5F0E0808181608C9311C1A5E566
:10140000B0E0E5E5F0E0808183608C9309C1A5E55B
:10141000B0E0E5E5F0E0808182608C9301C182E07C
:101420008A83FEC08981282F30E0C901880F991F67
:10143000280F391F8B819C81FC01E20FF31F8081F3
:10144000813009F07EC08981282F30E0C901880FE2
:10145000991F280F391F8B819C81FC01E20FF31F1C
:101460008181813041F4ABE5B0E0EBE5F0E08081D3
:1014700080688C9317C08981282F30E0C901880FBC
:10148000991F280F391F8B819C81FC01E20FF31FEC
:101490008181882339F4ABE5B0E0EBE5F0E08081B1
:1014A0008F778C938981282F30E0C901880F991F8D
:1014B000280F391F8B819C81FC01E20FF31F828171
:1014C000282F30E038872F838F81988581309105D0
:1014D000E9F02F813885223031052CF48F819885F1
:1014E000009761F02BC02F81388522303105B1F093
:1014F0008F81988583309105C9F020C0A5E5B0E0C3
:10150000E5E5F0E08081837F8C938AC0A5E5B0E0BB
:10151000E5E5F0E08081877F8C9382C0A5E5B0E0AF
:10152000E5E5F0E080818C608C937AC0A5E5B0E0C1
:10153000E5E5F0E0808188608C9372C082E08A8368
:101540006FC08981282F30E0C901880F991F280FAB
:10155000391F8B819C81FC01E20FF31F8081823057
:1015600009F05EC08981282F30E0C901880F991FDA
:10157000280F391F8B819C81FC01E20FF31F8181B1
:10158000813041F4ABE5B0E0EBE5F0E080818062D2
:101590008C9317C08981282F30E0C901880F991FCB
:1015A000280F391F8B819C81FC01E20FF31F818181
:1015B000882339F4ABE5B0E0EBE5F0E080818F7D86
:1015C0008C938981282F30E0C901880F991F280F3B
:1015D000391F8B819C81FC01E20FF31F8281282F30
:1015E00030E03E832D838D819E818230910531F0E4
:1015F0002D813E812330310549F010C0A4E5B0E0D3
:10160000E4E5F0E0808180648C930AC0A4E5B0E05A
:10161000E4E5F0E080818F7B8C9302C082E08A83D6
:1016200089818F5F89839091EF008981891708F400
:101630006ACE1A8202C083E08A838A812A960FB614
:10164000F894DEBF0FBECDBFCF91DF910895DF9339
:10165000CF93CDB7DEB72A970FB6F894DEBF0FBE93
:10166000CDBF9B838A836C8381E0898389818823B2
:1016700009F0B9C0EA81FB818081882309F042C06A
:101680008C81282F30E03A87298789859A85813097
:101690009105E9F029853A85223031052CF48985B8
:1016A0009A85009761F02BC029853A852230310553
:1016B000B1F089859A8583309105C9F020C0A5E5F0
:1016C000B0E0E5E5F0E080818C7F8C938AC0A5E5F1
:1016D000B0E0E5E5F0E0808181608C9382C0A5E513
:1016E000B0E0E5E5F0E0808183608C937AC0A5E509
:1016F000B0E0E5E5F0E0808182608C9372C082E02A
:1017000089836FC0EA81FB818081813009F042C00A
:101710008C81282F30E038872F838F819885813006
:101720009105E9F02F813885223031052CF48F8125
:101730009885009761F02BC02F81388522303105C4
:10174000B1F08F81988583309105C9F020C0A5E55F
:10175000B0E0E5E5F0E08081837F8C9342C0A5E5B1
:10176000B0E0E5E5F0E08081877F8C933AC0A5E5A5
:10177000B0E0E5E5F0E080818C608C9332C0A5E5B7
:10178000B0E0E5E5F0E0808188608C932AC082E0DB
:10179000898327C0EA81FB818081823011F58C81A9
:1017A000282F30E03E832D838D819E8182309105EC
:1017B00031F02D813E812330310549F010C0A4E580
:1017C000B0E0E4E5F0E0808180648C930AC0A4E599
:1017D000B0E0E4E5F0E080818F7B8C9302C082E092
:1017E0008983198202C083E0898389812A960FB692
:1017F000F894DEBF0FBECDBFCF91DF910895DF9388
:10180000CF9300D00F92CDB7DEB79B838A8381E060
:1018100089838A819B81009741F5EA81FB818081E0
:10182000882341F4ABE5B0E0EBE5F0E08081806433
:101830008C9319C0EA81FB818081813041F4ABE552
:10184000B0E0EBE5F0E0808180688C930CC0EA8129
:10185000FB818081823039F4ABE5B0E0EBE5F0E06C
:10186000808180628C93198202C083E089838981A0
:101870000F900F900F90CF91DF910895DF93CF934A
:1018800000D00F92CDB7DEB79B838A8381E0898336
:101890008A819B81009729F5EA81FB8180818823D9
:1018A00039F4EBE5F0E0ABE5B0E08C91808317C054
:1018B000EA81FB818081813039F4EBE5F0E0ABE532
:1018C000B0E08C9180830BC0EA81FB818081823003
:1018D00031F4EBE5F0E0ABE5B0E08C918083198268
:1018E00002C083E0898389810F900F900F90CF9180
:1018F000DF910895DF93CF9300D0CDB7DEB79A8301
:10190000898389819A8190931E0180931D010F9094
:101910000F90CF91DF9108951F920F920FB60F9203
:1019200011242F933F934F935F936F937F938F93E4
:101930009F93AF93BF93EF93FF93DF93CF93CDB775
:10194000DEB7E0911D01F0911E010995CF91DF9165
:10195000FF91EF91BF91AF919F918F917F916F9187
:101960005F914F913F912F910F900FBE0F901F905D
:101970001895DF93CF930F92CDB7DEB781E08983BF
:10198000AAE3B0E0EAE3F0E080818E7F8C93AAE3E3
:10199000B0E0EAE3F0E080818D7F8C93AAE3B0E0D1
:1019A000EAE3F0E080818B7F8C93AAE3B0E0EAE386
:1019B000F0E0808188608C93AAE3B0E0EAE3F0E095
:1019C00080818F7E8C93AAE3B0E0EAE3F0E080812F
:1019D0008F7D8C93AAE3B0E0EAE3F0E0808180643D
:1019E0008C93AAE3B0E0EAE3F0E0808180688C9316
:1019F000A7E3B0E0E7E3F0E080818E7F8C93A7E37C
:101A0000B0E0E7E3F0E080818D7F8C93A7E3B0E066
:101A1000E7E3F0E080818B7F8C93A7E3B0E0E7E31E
:101A2000F0E0808188608C93A7E3B0E0E7E3F0E02A
:101A300080818F7E8C93A7E3B0E0E7E3F0E08081C4
:101A40008F7D8C93A7E3B0E0E7E3F0E080818064D2
:101A50008C93A7E3B0E0E7E3F0E0808180688C93AB
:101A6000A4E3B0E0E4E3F0E080818E7F8C93A4E314
:101A7000B0E0E4E3F0E080818D7F8C93A4E3B0E0FC
:101A8000E4E3F0E080818B7F8C93A4E3B0E0E4E3B7
:101A9000F0E0808188608C93A4E3B0E0E4E3F0E0C0
:101AA00080818F7E8C93A4E3B0E0E4E3F0E080815A
:101AB0008F7D8C93A4E3B0E0E4E3F0E08081806468
:101AC0008C93A4E3B0E0E4E3F0E0808180688C9341
:101AD000A1E3B0E0E1E3F0E080818E7F8C93A1E3AD
:101AE000B0E0E1E3F0E080818D7F8C93A1E3B0E092
:101AF000E1E3F0E080818B7F8C93A1E3B0E0E1E350
:101B0000F0E0808188608C93A1E3B0E0E1E3F0E055
:101B100080818F7E8C93A1E3B0E0E1E3F0E08081EF
:101B20008F7D8C93A1E3B0E0E1E3F0E080818064FD
:101B30008C93A1E3B0E0E1E3F0E0808180688C93D6
:101B4000198289810F90CF91DF910895DF93CF9310
:101B500000D000D000D0CDB7DEB78A836B834C8332
:101B600081E089838A81843008F0D0C08B818830FD
:101B700008F0CCC08C81823008F0C8C08A81282F40
:101B800030E03E832D836D817E816130710509F4E3
:101B900041C08D819E818230910534F42D813E813A
:101BA0002115310571F0B0C06D817E816230710503
:101BB00009F459C08D819E818330910509F47CC060
:101BC000A3C0AAE3B0E0EAE3F0E08081482F8B8174
:101BD000282F30E081E090E002C0880F991F2A95FD
:101BE000E2F7809584238C93AAE3B0E0EAE3F0E087
:101BF0008081482F8C81282F30E08B81882F90E0C6
:101C0000B90102C0660F771F8A95E2F7CB01842BDA
:101C10008C937AC0A7E3B0E0E7E3F0E08081482F3F
:101C20008B81282F30E081E090E002C0880F991F5F
:101C30002A95E2F7809584238C93A7E3B0E0E7E34D
:101C4000F0E08081482F8C81282F30E08B81882F15
:101C500090E0B90102C0660F771F8A95E2F7CB01C9
:101C6000842B8C9351C0A4E3B0E0E4E3F0E08081E6
:101C7000482F8B81282F30E081E090E002C0880F50
:101C8000991F2A95E2F7809584238C93A4E3B0E012
:101C9000E4E3F0E08081482F8C81282F30E08B81B5
:101CA000882F90E0B90102C0660F771F8A95E2F78E
:101CB000CB01842B8C9328C0A1E3B0E0E1E3F0E0FA
:101CC0008081482F8B81282F30E081E090E002C096
:101CD000880F991F2A95E2F7809584238C93A1E3BE
:101CE000B0E0E1E3F0E08081482F8C81282F30E0E4
:101CF0008B81882F90E0B90102C0660F771F8A950B
:101D0000E2F7CB01842B8C93198202C082E0898395
:101D1000898126960FB6F894DEBF0FBECDBFCF9156
:101D2000DF910895DF93CF9300D000D000D0CDB7DE
:101D3000DEB78A836B834C8381E089838A81843018
:101D400008F0D0C08B81883008F0CCC08C81823004
:101D500008F0C8C08A81282F30E03E832D836D8132
:101D60007E816130710509F441C08D819E81823090
:101D7000910534F42D813E812115310571F0B0C0FB
:101D80006D817E816230710509F459C08D819E811B
:101D90008330910509F47CC0A3C0ABE3B0E0EBE372
:101DA000F0E08081482F8B81282F30E081E090E0A7
:101DB00002C0880F991F2A95E2F7809584238C939F
:101DC000ABE3B0E0EBE3F0E08081482F8C81282F7B
:101DD00030E08B81882F90E0B90102C0660F771F39
:101DE0008A95E2F7CB01842B8C937AC0A8E3B0E00C
:101DF000E8E3F0E08081482F8B81282F30E081E0FC
:101E000090E002C0880F991F2A95E2F780958423FD
:101E10008C93A8E3B0E0E8E3F0E08081482F8C8168
:101E2000282F30E08B81882F90E0B90102C0660F27
:101E3000771F8A95E2F7CB01842B8C9351C0A5E3E1
:101E4000B0E0E5E3F0E08081482F8B81282F30E07F
:101E500081E090E002C0880F991F2A95E2F78095F3
:101E600084238C93A5E3B0E0E5E3F0E08081482F84
:101E70008C81282F30E08B81882F90E0B90102C03F
:101E8000660F771F8A95E2F7CB01842B8C9328C0CD
:101E9000A2E3B0E0E2E3F0E08081482F8B81282FBD
:101EA00030E081E090E002C0880F991F2A95E2F7A8
:101EB000809584238C93A2E3B0E0E2E3F0E080819C
:101EC000482F8C81282F30E08B81882F90E0B9013A
:101ED00002C0660F771F8A95E2F7CB01842B8C93A3
:101EE000198202C082E08983898126960FB6F89410
:101EF000DEBF0FBECDBFCF91DF910895DF93CF93AB
:101F000000D000D00F92CDB7DEB78A836B8381E01B
:101F100089838A81843008F074C08B81883008F00E
:101F200070C08A81282F30E03D832C838C819D8175
:101F30008130910549F12C813D81223031052CF40D
:101F40008C819D81009761F05AC02C813D812230A7
:101F5000310571F18C819D8183309105E9F14FC08C
:101F6000ABE3B0E0EBE3F0E08081482F8B81282FDA
:101F700030E081E090E0022E02C0880F991F0A94A1
:101F8000E2F784278C933BC0A8E3B0E0E8E3F0E0FD
:101F90008081482F8B81282F30E081E090E0022E55
:101FA00002C0880F991F0A94E2F784278C9327C0F8
:101FB000A5E3B0E0E5E3F0E08081482F8B81282F96
:101FC00030E081E090E0022E02C0880F991F0A9451
:101FD000E2F784278C9313C0A2E3B0E0E2E3F0E0E1
:101FE0008081482F8B81282F30E081E090E0022E05
:101FF00002C0880F991F0A94E2F784278C931982F4
:1020000002C082E0898389810F900F900F900F901A
:102010000F90CF91DF910895DF93CF93CDB7DEB7C7
:1020200027970FB6F894DEBF0FBECDBF8A836B83B0
:102030005D834C8381E089838C819D81009709F4C5
:102040007DC08A81843008F076C08B81883008F0AA
:1020500072C08A81282F30E03F832E834E815F81BA
:102060004130510559F18E819F818230910534F4C0
:102070002E813F812115310569F05BC04E815F8162
:102080004230510579F18E819F818330910509F4A9
:102090003DC04FC0E9E3F0E08081282F30E08B8124
:1020A000882F90E0A90102C0559547958A95E2F7DF
:1020B000CA018170EC81FD8180833BC0E6E3F0E0E2
:1020C0008081282F30E08B81882F90E0A90102C009
:1020D000559547958A95E2F7CA018170EC81FD819B
:1020E000808327C0E3E3F0E08081282F30E08B81FC
:1020F000882F90E0A90102C0559547958A95E2F78F
:10210000CA018170EC81FD81808313C0E0E3F0E0BF
:102110008081282F30E08B81882F90E0A90102C0B8
:10212000559547958A95E2F7CA018170EC81FD814A
:102130008083198205C082E0898302C083E089839D
:10214000898127960FB6F894DEBF0FBECDBFCF9121
:10215000DF910895DF93CF930F92CDB7DEB781E083
:102160008983A7E2B0E0E7E2F0E0808180648C93AD
:10217000A7E2B0E0E7E2F0E080818C93A7E2B0E074
:10218000E7E2F0E0808183608C93A6E2B0E0E6E2D3
:10219000F0E0808187608C93A6E2B0E0E6E2F0E0B8
:1021A000808180628C93A6E2B0E0E6E2F0E080817C
:1021B00080688C93198289810F90CF91DF91089567
:1021C000DF93CF9300D00F92CDB7DEB79B838A8386
:1021D00081E089838A819B810097A9F1A6E2B0E022
:1021E000E6E2F0E0808180648C93E6E2F0E08081BA
:1021F00082958F70882F90E0817090700097A9F37E
:10220000E4E2F0E08081482F50E0E5E2F0E08081F8
:102210008695882F90E0817090709C01220F331F6B
:10222000E5E2F0E08081882F90E081709070820F6D
:10223000931F982F8827840F951FEA81FB81918334
:102240008083198202C083E0898389810F900F9077
:102250000F90CF91DF910895DF93CF930F92CDB779
:10226000DEB781E08983A6E2B0E0E6E2F0E08081BB
:102270008F778C93198289810F90CF91DF91089588
:10228000DF93CF930F92CDB7DEB781E08983A6E2CB
:10229000B0E0E6E2F0E0808180688C931982898169
:1022A0000F90CF91DF910895DF93CF93CDB7DEB735
:1022B0000E94AA1080E0CF91DF910895DF93CF9321
:1022C00000D000D0CDB7DEB79C838B83CE010196C2
:1022D0000E94E01089819A81CC01A0E0B0E024EF57
:1022E00031E040E050E0BC01CD010E944E1CDC0119
:1022F000CB012FEF33E040E050E0BC01CD010E9464
:10230000801CDA01C901EB81FC819183808380E02C
:102310000F900F900F900F90CF91DF910895DF9362
:10232000CF93CDB7DEB70E94401180E0CF91DF910F
:102330000895DF93CF93CDB7DEB70E942C1180E0D4
:10234000CF91DF910895DF93CF9300D000D0CDB728
:10235000DEB781E08A8383E063E041E00E94A60D5E
:102360008B8383E063E041E00E94920E8C831982AC
:102370001BC08981282F30E0CE010396FC01E20FBB
:10238000F31F8081882329F41A8289818F5F8983D2
:102390000BC08981282F30E0CE010396FC01E20FAB
:1023A000F31F80818A8303C08981823010F38A8180
:1023B0000F900F900F900F90CF91DF910895DF93C2
:1023C000CF930F92CDB7DEB781E0898383E063E0DE
:1023D00041E00E94920E198289810F90CF91DF9186
:1023E0000895DF93CF93CDB7DEB7AB970FB6F894D0
:1023F000DEBF0FBECDBF81E08BA780E090E0ACE0F8
:10240000B2E48FA398A7A9A7BAA76FA178A589A5B9
:102410009AA520E030E04AE755E40E941F02DC0163
:10242000CB018BA39CA3ADA3BEA36BA17CA18DA16B
:102430009EA120E030E040E85FE30E94790388231A
:102440002CF481E090E09AA389A33FC06BA17CA10A
:102450008DA19EA120E03FEF4FE757E40E941903B2
:1024600018164CF56FA178A589A59AA520E030E053
:1024700040E251E40E941F02DC01CB01BC01CD010E
:102480000E944900DC01CB019AA389A30FC080E917
:1024900091E098A38F8F8F8D98A10197F1F798A362
:1024A0008F8F89A19AA101979AA389A389A19AA143
:1024B000009769F714C06BA17CA18DA19EA10E9419
:1024C0004900DC01CB019AA389A389A19AA19E8F1F
:1024D0008D8F8D8D9E8D0197F1F79E8F8D8F81E071
:1024E00061E041E00E94A60D81E062E041E00E94CF
:1024F000A60D81E060E041E00E94A60D80E067E06B
:1025000041E00E94A60D80E066E041E00E94A60D39
:1025100080E065E041E00E94A60D80E064E041E0DB
:102520000E94A60D81E061E040E00E94920E80E0F2
:1025300067E040E00E94920E80E066E040E00E948A
:10254000920E80E065E041E00E94920E80E064E03F
:1025500040E00E94920E81E060E041E00E94920E15
:1025600080E090E0A0E0B0E4898F9A8FAB8FBC8FC1
:10257000698D7A8D8B8D9C8D20E030E04AE755E4A3
:102580000E941F02DC01CB018D8B9E8BAF8BB88F1D
:102590006D897E898F89988D20E030E040E85FE387
:1025A0000E94790388232CF481E090E09C8B8B8B34
:1025B0003FC06D897E898F89988D20E03FEF4FE77E
:1025C00057E40E94190318164CF5698D7A8D8B8D8E
:1025D0009C8D20E030E040E251E40E941F02DC01CB
:1025E000CB01BC01CD010E944900DC01CB019C8BD9
:1025F0008B8B0FC080E991E09A8B898B89899A89AE
:102600000197F1F79A8B898B8B899C8901979C8B19
:102610008B8B8B899C89009769F714C06D897E89A3
:102620008F89988D0E944900DC01CB019C8B8B8B9C
:102630008B899C89988B8F878F8598890197F1F773
:10264000988B8F8781E060E040E00E94920E80E0EE
:1026500090E0A0E0B0E48B879C87AD87BE876B8558
:102660007C858D859E8520E030E04AE755E40E9418
:102670001F02DC01CB018F839887A987BA876F81FE
:10268000788589859A8520E030E040E85FE30E9404
:10269000790388232CF481E090E09E838D833FC0F2
:1026A0006F81788589859A8520E03FEF4FE757E471
:1026B0000E94190318164CF56B857C858D859E85C7
:1026C00020E030E040E251E40E941F02DC01CB0137
:1026D000BC01CD010E944900DC01CB019E838D83AA
:1026E0000FC080E991E09C838B838B819C81019753
:1026F000F1F79C838B838D819E8101979E838D83CF
:102700008D819E81009769F714C06F8178858985D6
:102710009A850E944900DC01CB019E838D838D81C7
:102720009E819A83898389819A810197F1F79A839F
:10273000898388E20E94671581E061E040E00E94A1
:10274000920E8FE00E94671581E061E040E00E94F8
:10275000920E81E00E94671581E061E040E00E94F6
:10276000920E86E00E9467158BA5AB960FB6F89483
:10277000DEBF0FBECDBFCF91DF910895DF93CF9322
:1027800000D0CDB7DEB78A8381E0898381E061E044
:1027900041E00E94920E8A810E94671589810F9004
:1027A0000F90CF91DF910895DF93CF9300D0CDB7F5
:1027B000DEB78A8381E0898381E061E040E00E94A6
:1027C000920E8A810E94671589810F900F90CF9198
:1027D000DF910895DF93CF9300D00F92CDB7DEB78E
:1027E0009A83898389819A81009789F00BC0E98156
:1027F000FA81208189819A8101969A838983822F27
:102800000E94BE13E981FA818081882381F70F90AD
:102810000F900F90CF91DF910895DF93CF9300D069
:1028200000D0CDB7DEB78B836C8381E08A838B8148
:102830008230D0F48C818031B8F48B81882F90E085
:102840000024969587950794969587950794982FD9
:10285000802D982F8C81890F898389818068898355
:1028600089810E94D4131A828A810F900F900F9051
:102870000F90CF91DF910895DF93CF9300D000D0D8
:1028800000D0CDB7DEB79D838C836E8381E08B83D0
:1028900019828E81883018F58E81882F90E0880FFC
:1028A000991F880F991F880F991F8A838A818064D6
:1028B0008A838A810E94D4130EC08981282F30E038
:1028C0008C819D81FC01E20FF31F80810E94BE1369
:1028D00089818F5F89838981883078F31B8282E0C8
:1028E0000E94D4138B8126960FB6F894DEBF0FBEDC
:1028F000CDBFCF91DF910895DF93CF930F92CDB7E6
:10290000DEB7898389810E94BE1380E00F90CF914A
:10291000DF910895DF93CF93CDB7DEB768970FB6F9
:10292000F894DEBF0FBECDBF6D8B7E8B8F8B988FE3
:1029300081E08F838DE0FE013896DF01982F1D9294
:102940009A95E9F71E828D899E89AF89B88D898312
:102950009A83AB83BC838D899E89AF89B88D00979C
:10296000A105B10509F4A5C08D899E89AF89B88DEF
:10297000BB23BCF58DE20E94BE138D899E89AF8971
:10298000B88DB095A095909581959F4FAF4FBF4F53
:102990008D8B9E8BAF8BB88F89819A81AB81BC81E7
:1029A000B095A095909581959F4FAF4FBF4F89836C
:1029B0009A83AB83BC8315C08E818F5F8E838D8994
:1029C0009E89AF89B88D2AE030E040E050E0BC013C
:1029D000CD010E94A21CDA01C9018D8B9E8BAF8BA9
:1029E000B88F8D899E89AF89B88D0097A105B105F3
:1029F00019F789819A81AB81BC818D8B9E8BAF8BBE
:102A0000B88F33C08D899E89AF89B88D2AE030E0B8
:102A100040E050E0BC01CD010E94A21CDC01CB01D2
:102A20008D838E81882F90E09C01215030408D81D4
:102A3000482F405DCE010896FC01E20FF31F408352
:102A40008D899E89AF89B88D2AE030E040E050E062
:102A5000BC01CD010E94A21CDA01C9018D8B9E8BA5
:102A6000AF8BB88F8E8181508E838D899E89AF897F
:102A7000B88D0097A105B10529F60FC08E81282FCA
:102A800030E0CE010896FC01E20FF31F90818E81A9
:102A90008F5F8E83892F0E94BE138E81282F30E096
:102AA000CE010896FC01E20FF31F8081882331F7E5
:102AB00004C080E30E94BE131F828F8168960FB608
:102AC000F894DEBF0FBECDBFCF91DF910895DF93A5
:102AD000CF93CDB7DEB7EA970FB6F894DEBF0FBE3F
:102AE000CDBF89AF81E062E040E00E94920E81E0BC
:102AF00060E040E00E94920E89AD982F991F9927BF
:102B0000991F80E067E0492F0E94920E89AD82955F
:102B1000869586958370982F917080E066E0492FA6
:102B20000E94920E89AD829586958770982F91703C
:102B300080E065E0492F0E94920E89AD82958F70EA
:102B4000982F917080E064E0492F0E94920E81E0FE
:102B500060E041E00E94920E80E090E0A0E0B0E4EE
:102B60008DAB9EABAFABB8AF6DA97EA98FA998AD69
:102B700020E030E04AE755E40E941F02DC01CB016F
:102B800089AB9AABABABBCAB69A97AA98BA99CA961
:102B900020E030E040E85FE30E94790388232CF4D2
:102BA00081E090E098AB8FA73FC069A97AA98BA973
:102BB0009CA920E03FEF4FE757E40E941903181645
:102BC0004CF56DA97EA98FA998AD20E030E040E2D8
:102BD00051E40E941F02DC01CB01BC01CD010E9427
:102BE0004900DC01CB0198AB8FA70FC080E991E0D1
:102BF0009EA78DA78DA59EA50197F1F79EA78DA7EE
:102C00008FA598A9019798AB8FA78FA598A9009732
:102C100069F714C069A97AA98BA99CA90E944900E7
:102C2000DC01CB0198AB8FA78FA598A99CA78BA798
:102C30008BA59CA50197F1F79CA78BA781E060E08D
:102C400040E00E94920E80E090E0A0E0B0E48FA30C
:102C500098A7A9A7BAA76FA178A589A59AA520E0EA
:102C600030E04AE755E40E941F02DC01CB018BA350
:102C70009CA3ADA3BEA36BA17CA18DA19EA120E0CE
:102C800030E040E85FE30E94790388232CF481E080
:102C900090E09AA389A33FC06BA17CA18DA19EA1C6
:102CA00020E03FEF4FE757E40E94190318164CF558
:102CB0006FA178A589A59AA520E030E040E251E413
:102CC0000E941F02DC01CB01BC01CD010E94490022
:102CD000DC01CB019AA389A30FC080E991E098A3FE
:102CE0008F8F8F8D98A10197F1F798A38F8F89A16E
:102CF0009AA101979AA389A389A19AA1009769F73C
:102D000014C06BA17CA18DA19EA10E944900DC0191
:102D1000CB019AA389A389A19AA19E8F8D8F8D8DB6
:102D20009E8D0197F1F79E8F8D8F89AD8695869543
:102D30008695982F917080E067E0492F0E94920E4F
:102D400089AD86958695982F917080E066E0492F31
:102D50000E94920E89AD8695982F917080E065E073
:102D6000492F0E94920E89AD982F917080E064E007
:102D7000492F0E94920E81E060E041E00E94920E95
:102D800080E090E0A0E0B0E4898F9A8FAB8FBC8F99
:102D9000698D7A8D8B8D9C8D20E030E04AE755E47B
:102DA0000E941F02DC01CB018D8B9E8BAF8BB88FF5
:102DB0006D897E898F89988D20E030E040E85FE35F
:102DC0000E94790388232CF481E090E09C8B8B8B0C
:102DD0003FC06D897E898F89988D20E03FEF4FE756
:102DE00057E40E94190318164CF5698D7A8D8B8D66
:102DF0009C8D20E030E040E251E40E941F02DC01A3
:102E0000CB01BC01CD010E944900DC01CB019C8BB0
:102E10008B8B0FC080E991E09A8B898B89899A8985
:102E20000197F1F79A8B898B8B899C8901979C8BF1
:102E30008B8B8B899C89009769F714C06D897E897B
:102E40008F89988D0E944900DC01CB019C8B8B8B74
:102E50008B899C89988B8F878F8598890197F1F74B
:102E6000988B8F8781E060E040E00E94920E80E0C6
:102E700090E0A0E0B0E48B879C87AD87BE876B8530
:102E80007C858D859E8520E030E04AE755E40E94F0
:102E90001F02DC01CB018F839887A987BA876F81D6
:102EA000788589859A8520E030E040E85FE30E94DC
:102EB000790388232CF481E090E09E838D833FC0CA
:102EC0006F81788589859A8520E03FEF4FE757E449
:102ED0000E94190318164CF56B857C858D859E859F
:102EE00020E030E040E251E40E941F02DC01CB010F
:102EF000BC01CD010E944900DC01CB019E838D8382
:102F00000FC080E991E09C838B838B819C8101972A
:102F1000F1F79C838B838D819E8101979E838D83A6
:102F20008D819E81009769F714C06F8178858985AE
:102F30009A850E944900DC01CB019E838D838D819F
:102F40009E819A83898389819A810197F1F79A8377
:102F50008983EA960FB6F894DEBF0FBECDBFCF913E
:102F6000DF910895DF93CF930F92CDB7DEB781E065
:102F7000898382E060E040E00E94A60D82E061E08B
:102F800040E00E94A60D82E062E040E00E94A60DB3
:102F900082E063E040E00E94A60D83E064E041E04F
:102FA0000E94A60D83E065E041E00E94A60D83E04B
:102FB00066E041E00E94A60D83E067E041E00E94E8
:102FC000A60D82E060E041E00E94920E82E061E0A6
:102FD00041E00E94920E82E062E041E00E94920E87
:102FE00082E063E041E00E94920E83E064E041E011
:102FF0000E94920E83E065E041E00E94920E83E021
:1030000066E041E00E94920E83E067E041E00E94AA
:10301000920E198289810F90CF91DF910895DF93ED
:10302000CF93CDB7DEB7E9970FB6F894DEBF0FBEEA
:10303000CDBF9CAB8BAB81E0898B8BA99CA9009702
:1030400009F468C1188A83E08B8B83E08C8B83E062
:103050008D8B83E08E8B84E08F8B85E0888F86E07C
:10306000898F87E08A8F82E08B8F82E08C8F82E06D
:103070008D8F82E08E8F1F8E81E088A382E089A3EE
:1030800083E08AA31F86EBA9FCA98FEF80833DC153
:103090008F85282F30E0CE014396FC01E20FF31F0D
:1030A00040818F85282F30E0CE014796FC01E20F4A
:1030B000F31F9081842F692F40E00E94920E188A9E
:1030C00005C18889282F30E0CE014B96FC01E20F24
:1030D000F31F40818889282F30E0CE014F96FC01F4
:1030E000E20FF31F90819E012E5E3F4F842F692FC8
:1030F000A9010E940C108A89882309F0E4C080E0AD
:1031000090E0A0E2B1E48B879C87AD87BE876B859A
:103110007C858D859E8520E030E04AE755E40E945D
:103120001F02DC01CB018F839887A987BA876F8143
:10313000788589859A8520E030E040E85FE30E9449
:10314000790388232CF481E090E09E838D833FC037
:103150006F81788589859A8520E03FEF4FE757E4B6
:103160000E94190318164CF56B857C858D859E850C
:1031700020E030E040E251E40E941F02DC01CB017C
:10318000BC01CD010E944900DC01CB019E838D83EF
:103190000FC080E991E09C838B838B819C81019798
:1031A000F1F79C838B838D819E8101979E838D8314
:1031B0008D819E81009769F714C06F81788589851C
:1031C0009A850E944900DC01CB019E838D838D810D
:1031D0009E819A83898389819A810197F1F79A83E5
:1031E00089838889282F30E0CE014B96FC01E20FBD
:1031F000F31F40818889282F30E0CE014F96FC01D3
:10320000E20FF31F90819E012E5E3F4F842F692FA6
:10321000A9010E940C108A89882309F054C01AC0A1
:103220008889282F30E0CE014B96FC01E20FF31F76
:1032300040818889282F30E0CE014F96FC01E20FB3
:10324000F31F90819E012E5E3F4F842F692FA901AD
:103250000E940C108A89882319F3CE0183969EABB5
:103260008DABE9EFF0E0F8AFEFABF0E1F9AFEFA92C
:10327000F8AD00808FA998AD019698AF8FABEDA9FE
:10328000FEA900828DA99EA901969EAB8DAB99AD3A
:10329000915099AFE9ADEE2351F78889282F30E09E
:1032A0008F85482F50E0220F331F220F331FCE018E
:1032B0000196820F931F840F951FFC01B2968081A7
:1032C000EBA9FCA9808388898F5F888B88898430EB
:1032D00008F4F7CE8F85282F30E0CE014396FC010D
:1032E000E20FF31F40818F85282F30E0CE014796F3
:1032F000FC01E20FF31F9081842F692F41E00E94AF
:10330000920E198A8F858F5F8F878F85843008F49E
:10331000BFCE02C083E0898B8989E9960FB6F89405
:10332000DEBF0FBECDBFCF91DF910895DF93CF9366
:103330000F92CDB7DEB781E0898381E064E041E0A0
:103340000E94A60D81E065E041E00E94A60D81E0AB
:1033500066E041E00E94A60D81E067E041E00E9446
:10336000A60D0E94AB0889810F90CF91DF9108953F
:10337000DF93CF93CDB7DEB72A970FB6F894DEBFB1
:103380000FBECDBF9B838A836C8381E089838C8150
:10339000282F30E03E832D838D819E81009731F070
:1033A0002D813E8121303105B1F169C08A819B8137
:1033B00098878F832F8138852532310559F08F8189
:1033C00098858F32910589F02F8138852430310519
:1033D000B9F055C081E064E041E00E94920E81E0C6
:1033E00065E040E00E94920E4AC081E064E040E067
:1033F0000E94920E81E065E041E00E94920E3FC083
:1034000081E064E040E00E94920E81E065E040E0EF
:103410000E94920E34C08A819B819A878987298570
:103420003A852532310559F089859A858F32910583
:1034300089F029853A8524303105B9F020C081E032
:1034400066E041E00E94920E81E067E040E00E9469
:10345000920E15C081E066E040E00E94920E81E08D
:1034600067E041E00E94920E0AC081E066E040E021
:103470000E94920E81E067E040E00E94920E198265
:1034800089812A960FB6F894DEBF0FBECDBFCF91CB
:10349000DF910895DF93CF9300D0CDB7DEB78A8355
:1034A00081E089838A810E94DA0889810F900F90D8
:1034B000CF91DF910895DF93CF930F92CDB7DEB711
:1034C00081E089830E940A0989810F90CF91DF9161
:1034D0000895DF93CF930F92CDB7DEB781E0898354
:1034E0000E941E0989810F90CF91DF910895DF938B
:1034F000CF93CDB7DEB760970FB6F894DEBF0FBE9F
:10350000CDBF0E94B90C0E9496190E94A3050E948B
:10351000F11183E060E040E00E94A60D0E945B1A7A
:1035200080E090E0AAEFB3E48B879C87AD87BE87ED
:103530006B857C858D859E8520E030E04AE755E4EB
:103540000E941F02DC01CB018F839887A987BA876D
:103550006F81788589859A8520E030E040E85FE3D7
:103560000E94790388232CF481E090E09E838D8370
:103570003FC06F81788589859A8520E03FEF4FE7CE
:1035800057E40E94190318164CF56B857C858D85D0
:103590009E8520E030E040E251E40E941F02DC0101
:1035A000CB01BC01CD010E944900DC01CB019E830F
:1035B0008D830FC080E991E09C838B838B819C81FC
:1035C0000197F1F79C838B838D819E8101979E8368
:1035D0008D838D819E81009769F714C06F817885F6
:1035E00089859A850E944900DC01CB019E838D83E9
:1035F0008D819E819A83898389819A810197F1F7D0
:103600009A8389830E945B1ACE010F960E9451060D
:10361000CE010F9620E630E0B9010E94081D009708
:10362000D9F481E00E94D41381E40E944A1A85E211
:1036300060E00E94B81985E261E00E94B81983E653
:1036400090E00E94EA1381E060E00E940D1483E79D
:1036500090E00E94EA1364CFCE010F9622E830E09A
:10366000B9010E94081D0097D9F481E00E94D4138B
:1036700081E40E944A1A8FE260E00E94B8198FE24A
:1036800061E00E94B81985E890E00E94EA1381E0A9
:1036900060E00E940D1483E790E00E94EA1340CF9F
:1036A000CE010F9623E930E0B9010E94081D009772
:1036B000D9F481E00E94D41381E40E944A1A8FE277
:1036C00060E00E94B81985E261E00E94B81986E9BD
:1036D00090E00E94EA1381E060E00E940D1483E70D
:1036E00090E00E94EA131CCFCE010F9627EA30E04B
:1036F000B9010E94081D0097D9F481E00E94D413FB
:1037000081E40E944A1A85E260E00E94B8198FE2C3
:1037100061E00E94B8198AEA90E00E94EA1381E011
:1037200060E00E940D1483E790E00E94EA13F8CE57
:10373000CE010F962AEB30E0B9010E94081D0097D8
:10374000D9F481E00E94D41384E60E944A1A85E2EB
:1037500060E00E94B81985E261E00E94B81983E632
:1037600090E00E94EA1381E060E00E940D148DEB6E
:1037700090E00E94EA13D4CECE010F962CEC30E0FC
:10378000B9010E94081D0097D9F481E00E94D4136A
:1037900084E60E944A1A8FE260E00E94B8198FE224
:1037A00061E00E94B81985E890E00E94EA1381E088
:1037B00060E00E940D148DEB90E00E94EA13B0CE01
:1037C000CE010F962FEC30E0B9010E94081D009742
:1037D000D9F481E00E94D41384E60E944A1A8FE251
:1037E00060E00E94B81985E261E00E94B81986E99C
:1037F00090E00E94EA1381E060E00E940D148DEBDE
:1038000090E00E94EA138CCECE010F9622ED30E0BC
:10381000B9010E94081D0097D9F481E00E94D413D9
:1038200084E60E944A1A85E260E00E94B8198FE29D
:1038300061E00E94B8198AEA90E00E94EA1381E0F0
:1038400060E00E940D148DEB90E00E94EA1368CEB8
:10385000CE010F9625ED30E0B9010E94081D0097BA
:1038600009F05ECE81E00E94D41384E060E00E9403
:10387000B81984E061E00E94B81980E067E00E9416
:103880000D1488ED90E00E94EA1381E063E00E944D
:103890000D148CED90E00E94EA1342CE629FD0019D
:1038A000739FF001829FE00DF11D649FE00DF11DFB
:1038B000929FF00D839FF00D749FF00D659FF00DAA
:1038C0009927729FB00DE11DF91F639FB00DE11D97
:1038D000F91FBD01CF011124089597FB092E07267A
:1038E0000AD077FD04D049D006D000201AF4709594
:1038F00061957F4F0895F6F7909581959F4F0895B4
:10390000A1E21A2EAA1BBB1BFD010DC0AA1FBB1FE3
:10391000EE1FFF1FA217B307E407F50720F0A21B55
:10392000B30BE40BF50B661F771F881F991F1A94C2
:1039300069F760957095809590959B01AC01BD01EC
:10394000CF01089597FB092E05260ED057FD04D010
:10395000D7DF0AD0001C38F450954095309521955A
:103960003F4F4F4F5F4F0895F6F7909580957095B4
:1039700061957F4F8F4F9F4F0895AA1BBB1B51E14D
:1039800007C0AA1FBB1FA617B70710F0A61BB70BCF
:10399000881F991F5A95A9F780959095BC01CD0174
:1039A00008952F923F924F925F926F927F928F92E3
:1039B0009F92AF92BF92CF92DF92EF92FF920F93BE
:1039C0001F93CF93DF93CDB7DEB7CA1BDB0B0FB6C8
:1039D000F894DEBF0FBECDBF09942A883988488885
:1039E0005F846E847D848C849B84AA84B984C8841B
:1039F000DF80EE80FD800C811B81AA81B981CE0F12
:103A0000D11D0FB6F894DEBF0FBECDBFED010895F6
:103A1000FB01DC018D91019080190110D9F3990B04
:063A20000895F894FFCFA9
:103A26004E4200446972656374696F6E3A20426162
:103A3600636B005370656564203A204E6F726D614A
:103A46006C004E4600446972656374696F6E3A2075
:103A56005550004E5200446972656374696F6E3A40
:103A6600205269676874004E4C004469726563743D
:103A7600696F6E3A204C6566740044420053706567
:103A86006564203A20446F75626C650044460044C4
:103A96005200444C005354004341520049532053B2
:103AA600544F505045440000000000000000000341
:103AB600000102010000020103373839413435366E
:0A3AC600423132334543303D4400E5
:00000001FF
