:100000000C942A000C9447000C9447000C94470071
:100010000C9447000C9447000C9447000C94470044
:100020000C9447000C9447000C9447000C94470034
:100030000C9447000C9447000C9447000C94470024
:100040000C9447000C9447000C9447000C94470014
:100050000C94470011241FBECFE5D8E0DEBFCDBF12
:1000600010E0A0E6B0E0E0E6F2E202C005900D92FA
:10007000A638B107D9F710E0A6E8B0E001C01D929C
:10008000A838B107E1F70E941E0B0C942E110C94B6
:100090000000EF92FF920F931F937B018C0120E0F1
:1000A00030E040E05FE40E94490388238CF0C801FF
:1000B000B70120E030E040E05FE40E94C1010E940F
:1000C000A9039B01AC01205030404040504806C07D
:1000D000C801B7010E94A9039B01AC01B901CA0183
:1000E0001F910F91FF90EF900895A0E0B0E0EBE733
:1000F000F0E00C94F710DC012B01FA019C91923096
:1001000008F439C1EB018881823008F433C194309E
:1001100069F4843009F02FC111969C91119789815F
:10012000981709F428C1AEE7B0E025C1843009F47E
:1001300021C18230A9F4923009F01DC19A01AD01AC
:1001400088E0EA010990AE01E90109929E0181501F
:10015000C1F7E201898111969C918923818308C1AD
:10016000923009F407C112962D903C901397EB0141
:100170008A819B811496AD90BD90CD90DC901797AD
:10018000EC80FD800E811F819101281B390BB90184
:1001900037FF04C066277727621B730B6032710537
:1001A0000CF061C0121613066CF537014801062EDB
:1001B00004C096948794779467940A94D2F721E0C8
:1001C00030E040E050E004C0220F331F441F551FB1
:1001D0006A95D2F721503040404050402E213F21B7
:1001E00040235123211531054105510521F021E01E
:1001F00030E040E050E079018A01E628F72808293C
:1002000019293CC0232BD1F1260E371E350146019A
:10021000062E04C096948794779467940A94D2F734
:1002200021E030E040E050E004C0220F331F441FC3
:10023000551F6A95D2F721503040404050402A2146
:100240003B214C215D21211531054105510521F04E
:1002500021E030E040E050E059016A01A628B728CB
:10026000C828D9280BC0821593052CF01C01AA249C
:10027000BB24650103C0EE24FF24870111969C91E5
:10028000D20111968C91981709F445C0992339F041
:10029000A80197012A193B094C095D0906C0A6016E
:1002A00095012E193F09400B510B57FD08C01182D3
:1002B0003382228224833583468357831DC081E0A5
:1002C00081833382228288279927DC01821B930B4A
:1002D000A40BB50B84839583A683B7830DC0220F2F
:1002E000331F441F551F24833583468357838281E0
:1002F000938101979383828324813581468157813D
:10030000DA01C9010197A109B1098F5F9F4FAF4F72
:10031000BF4328F30BC0918333822282EA0CFB1C7B
:100320000C1D1D1DE482F5820683178383E0808304
:10033000248135814681578157FF1AC0C901AA27F8
:1003400097FDA095BA2F81709070A070B0705695EF
:10035000479537952795822B932BA42BB52B848318
:100360009583A683B7838281938101969383828349
:10037000DF0101C0D201CD01CDB7DEB7E2E10C94BF
:100380001311A0E2B0E0E7ECF1E00C9403116983F3
:100390007A838B839C832D833E834F835887E9E048
:1003A000EE2EF12CEC0EFD1ECE010196B7010E943F
:1003B000D2048E010F5E1F4FCE010596B8010E9438
:1003C000D2048A8991E089278A8BC701B801AE01DE
:1003D000475E5F4F0E9475000E94FD03A096E6E015
:1003E0000C941F11A0E2B0E0E8EFF1E00C940311CF
:1003F00069837A838B839C832D833E834F835887C5
:10040000F9E0EF2EF12CEC0EFD1ECE010196B701A6
:100410000E94D2048E010F5E1F4FCE010596B801D7
:100420000E94D204C701B801AE01475E5F4F0E942F
:1004300075000E94FD03A096E6E00C941F11A0E257
:10044000B0E0E5E2F2E00C94F71069837A838B83E5
:100450009C832D833E834F835887CE010196BE0136
:10046000675F7F4F0E94D204CE010596BE016F5E8A
:100470007F4F0E94D2049985923088F0898982301A
:10048000C8F0943019F4823051F404C0843029F457
:10049000923081F48EE790E0C6C0923049F420E0BB
:1004A0009A858A89981321E02A87CE010996BBC0D4
:1004B000823049F420E09A858A89981321E02A8BBA
:1004C000CE014196B0C02D843E844F8458886D88FB
:1004D0007E888F88988CEE24FF248701AA24BB2471
:1004E000650140E050E060E070E0E0E0F0E0C10174
:1004F00081709070892BE9F0E60CF71C081D191D1E
:100500009A01AB012A0D3B1D4C1D5D1D80E090E062
:10051000A0E0B0E0E614F7040805190520F481E036
:1005200090E0A0E0B0E0BA01A901480F591F6A1F8E
:100530007B1FAA0CBB1CCC1CDD1C97FE08C081E0F5
:1005400090E0A0E0B0E0A82AB92ACA2ADB2A3196B6
:10055000E032F10549F0660C771C881C991C569412
:10056000479437942794C3CFFA85EA892B893C892D
:100570008B859C85280F391F2E5F3F4F17C0CA01FE
:1005800081709070892B61F016950795F794E79428
:1005900080E090E0A0E0B0E8E82AF92A0A2B1B2BC3
:1005A00076956795579547952F5F3F4F77FDE7CF36
:1005B0000CC0440F551F661F771F17FD4160EE0CDE
:1005C000FF1C001F111F21503040403090E05907A0
:1005D00090E0690790E4790760F32B8F3C8FDB0193
:1005E000CA018F779070A070B07080349105A1051A
:1005F000B10561F447FD0AC0E114F10401051105DC
:1006000029F0405C5F4F6F4F7F4F40781A8EFE1786
:1006100011F081E08A8F4D8F5E8F6F8F78A383E01A
:10062000898FCE0149960E94FD03A096E2E10C94C9
:100630001311A8E1B0E0EFE1F3E00C94031169833A
:100640007A838B839C832D833E834F83588789E0F5
:10065000E82EF12CEC0EFD1ECE010196B7010E9492
:10066000D2048E010F5E1F4FCE010596B8010E9485
:10067000D2048985823040F08989823028F0C70110
:10068000B8010E944A0501C08FEF6896E6E00C941D
:100690001F11A8E1B0E0EFE4F3E00C9403116983CB
:1006A0007A838B839C832D833E834F83588789E095
:1006B000E82EF12CEC0EFD1ECE010196B7010E9432
:1006C000D2048E010F5E1F4FCE010596B8010E9425
:1006D000D2048985823040F08989823028F0C701B0
:1006E000B8010E944A0501C08FEF6896E6E00C94BD
:1006F0001F11A8E1B0E0EFE7F3E00C940311698368
:100700007A838B839C832D833E834F83588789E034
:10071000E82EF12CEC0EFD1ECE010196B7010E94D1
:10072000D2048E010F5E1F4FCE010596B8010E94C4
:10073000D2048985823040F08989823028F0C7014F
:10074000B8010E944A0501C081E06896E6E00C9479
:100750001F11ACE0B0E0EFEAF3E00C9407116983FD
:100760007A838B839C83CE010196BE016B5F7F4FA2
:100770000E94D2048D81823061F1823050F1843048
:1007800021F48E81882351F12EC02F81388537FDC9
:1007900020C06E812F3131051CF06623F9F023C093
:1007A0008EE190E0821B930B29853A854B855C8511
:1007B00004C056954795379527958A95D2F76623B5
:1007C000B1F050954095309521953F4F4F4F5F4F79
:1007D0000EC020E030E040E050E009C02FEF3FEFD6
:1007E0004FEF5FE704C020E030E040E050E8B9019F
:1007F000CA012C96E2E00C942311DF92EF92FF9253
:100800000F931F93FC01E480F58006811781D1804E
:100810008081823048F480E090E0A0E1B0E0E82AF6
:10082000F92A0A2B1B2BA5C0843009F49FC0823003
:1008300021F4EE24FF24870105C0E114F104010531
:10084000110519F4E0E0F0E096C0628173819FEF3A
:10085000623879070CF05BC022E83FEF261B370BAC
:100860002A3131052CF020E030E040E050E02AC091
:10087000B801A701022E04C0769567955795479554
:100880000A94D2F781E090E0A0E0B0E004C0880FC5
:10089000991FAA1FBB1F2A95D2F70197A109B10979
:1008A0008E219F21A023B1230097A105B10521F03E
:1008B00081E090E0A0E0B0E09A01AB01282B392B59
:1008C0004A2B5B2BDA01C9018F779070A070B07052
:1008D00080349105A105B10539F427FF09C0205CDA
:1008E0003F4F4F4F5F4F04C0215C3F4F4F4F5F4F13
:1008F000E0E0F0E02030A0E03A07A0E04A07A0E402
:100900005A0710F0E1E0F0E079018A0127C0603871
:10091000710564F5FB01E158FF4FD801C7018F77DE
:100920009070A070B07080349105A105B10539F4C4
:10093000E7FE0DC080E490E0A0E0B0E004C08FE3EB
:1009400090E0A0E0B0E0E80EF91E0A1F1B1F17FFA1
:1009500005C016950795F794E794319687E01695AC
:100960000795F794E7948A95D1F705C0EE24FF2404
:100970008701EFEFF0E06E2F679566276795902F60
:100980009F77D794DD24D7948E2F8695492F462BB9
:10099000582F5D29B701CA011F910F91FF90EF9069
:1009A000DF900895FC01DB01408151812281622F9B
:1009B0006F7770E0221F2227221F9381892F880FD3
:1009C000822B282F30E0991F9927991F11969C930D
:1009D000119721153105A9F54115510561057105DD
:1009E00011F482E037C082E89FEF13969C938E93B8
:1009F00012979A01AB0167E0220F331F441F551F66
:100A00006A95D1F783E08C930DC0220F331F441FEA
:100A1000551F12968D919C911397019713969C9355
:100A20008E931297203080E0380780E0480780E4FA
:100A3000580758F314962D933D934D935C93179755
:100A400008952F3F310579F4411551056105710570
:100A500019F484E08C93089564FF03C081E08C93C3
:100A600012C01C9210C02F57304013963C932E9307
:100A7000129783E08C9387E0440F551F661F771F02
:100A80008A95D1F7706414964D935D936D937C9322
:100A9000179708951F93DC01FB019C91923008F495
:100AA00047C08081823008F443C0943051F41196DD
:100AB0001C91843099F58181682F70E0611B710968
:100AC0003FC0843021F0923031F48230B9F181811D
:100AD000882389F12DC011961C9111978230F1F075
:100AE00081811817D9F412962D913C911397828128
:100AF00093818217930794F028173907BCF0149656
:100B00008D919D910D90BC91A02D248135814681C0
:100B10005781281739074A075B0718F4112341F05A
:100B20000AC082179307A407B50740F4112319F0F0
:100B300061E070E005C06FEF7FEF02C060E070E041
:100B4000CB011F910895DF93CF9300D000D0CDB794
:100B5000DEB781E08C83ABE2B0E0EBE2F0E08081D5
:100B60008D7F8C93AAE2B0E0EAE2F0E080818860B9
:100B70008C931B828B8186608B838B818F7C8B8394
:100B80008B8188608B838B818F7B8B838B8180684B
:100B90008B83E0E4F0E08B81808387E690E09A83AA
:100BA000898389819A819F779A838983E9E2F0E03A
:100BB00089818083E0E4F0E089819A81892F9927F7
:100BC00080838C810F900F900F900F90CF91DF91C9
:100BD0000895DF93CF9300D0CDB7DEB78A8381E04D
:100BE0008983EBE2F0E08081829586958770882F7B
:100BF00090E0817090700097A1F3ECE2F0E08A81C0
:100C0000808389810F900F90CF91DF910895DF93BA
:100C1000CF9300D00F92CDB7DEB79B838A8381E05C
:100C20008983EBE2F0E080818823DCF7ECE2F0E0FE
:100C30008081EA81FB81808389810F900F900F90E2
:100C4000CF91DF910895DF93CF9300D00F92CDB76E
:100C5000DEB79B838A8381E0898317C0EBE2F0E0F3
:100C60008081829586958770882F90E08170907042
:100C70000097A1F3ACE2B0E0EA81FB8180818C9324
:100C80008A819B8101969B838A83EA81FB81808193
:100C9000882321F789810F900F900F90CF91DF91DA
:100CA0000895DF93CF9300D000D00F92CDB7DEB779
:100CB0009D838C8381E08B831A82EBE2F0E080815C
:100CC0008823DCF7ECE2F0E080818983EBE2F0E05E
:100CD0008081829586958770882F90E081709070D2
:100CE0000097A1F3ECE2F0E08981808326C08A813D
:100CF000282F30E08C819D81FC01E20FF31F898158
:100D000080838A818F5F8A83EBE2F0E08081882391
:100D1000DCF7ECE2F0E080818983EBE2F0E08081B7
:100D2000829586958770882F90E0817090700097EB
:100D3000A1F3ECE2F0E08981808389818D3031F08C
:100D400089818A3019F08981882389F68A81282F40
:100D500030E08C819D81FC01E20FF31F10828B81BA
:100D60000F900F900F900F900F90CF91DF910895FB
:100D7000DF93CF930F92CDB7DEB781E08983AAE3EB
:100D8000B0E0EAE3F0E080818E7F8C9389810F9060
:100D9000CF91DF910895DF93CF9300D000D000D0A2
:100DA000CDB7DEB78A836B834C8381E089838A81E8
:100DB000843008F0D0C08B81883008F0CCC08C81A2
:100DC000823008F0C8C08A81282F30E03E832D830E
:100DD0006D817E816130710509F441C08D819E81F4
:100DE0008230910534F42D813E812115310571F059
:100DF000B0C06D817E816230710509F459C08D816A
:100E00009E818330910509F47CC0A3C0AAE3B0E0C1
:100E1000EAE3F0E08081482F8B81282F30E081E0E9
:100E200090E002C0880F991F2A95E2F780958423ED
:100E30008C93AAE3B0E0EAE3F0E08081482F8C8154
:100E4000282F30E08B81882F90E0B90102C0660F17
:100E5000771F8A95E2F7CB01842B8C937AC0A7E3A6
:100E6000B0E0E7E3F0E08081482F8B81282F30E06D
:100E700081E090E002C0880F991F2A95E2F78095E3
:100E800084238C93A7E3B0E0E7E3F0E08081482F70
:100E90008C81282F30E08B81882F90E0B90102C02F
:100EA000660F771F8A95E2F7CB01842B8C9351C094
:100EB000A4E3B0E0E4E3F0E08081482F8B81282FA9
:100EC00030E081E090E002C0880F991F2A95E2F798
:100ED000809584238C93A4E3B0E0E4E3F0E0808188
:100EE000482F8C81282F30E08B81882F90E0B9012A
:100EF00002C0660F771F8A95E2F7CB01842B8C9393
:100F000028C0A1E3B0E0E1E3F0E08081482F8B81CD
:100F1000282F30E081E090E002C0880F991F2A95C9
:100F2000E2F7809584238C93A1E3B0E0E1E3F0E065
:100F30008081482F8C81282F30E08B81882F90E092
:100F4000B90102C0660F771F8A95E2F7CB01842BA7
:100F50008C93198202C082E08983898126960FB61C
:100F6000F894DEBF0FBECDBFCF91DF910895DF9320
:100F7000CF9300D000D000D0CDB7DEB78A836B838B
:100F80004C8381E089838A81843008F0D0C08B81D2
:100F9000883008F0CCC08C81823008F0C8C08A81CB
:100FA000282F30E03E832D836D817E816130710575
:100FB00009F441C08D819E818230910534F42D81E8
:100FC0003E812115310571F0B0C06D817E816230A6
:100FD000710509F459C08D819E818330910509F412
:100FE0007CC0A3C0ABE3B0E0EBE3F0E08081482F2E
:100FF0008B81282F30E081E090E002C0880F991F9C
:101000002A95E2F7809584238C93ABE3B0E0EBE381
:10101000F0E08081482F8C81282F30E08B81882F51
:1010200090E0B90102C0660F771F8A95E2F7CB0105
:10103000842B8C937AC0A8E3B0E0E8E3F0E08081F1
:10104000482F8B81282F30E081E090E002C0880F8C
:10105000991F2A95E2F7809584238C93A8E3B0E04A
:10106000E8E3F0E08081482F8C81282F30E08B81ED
:10107000882F90E0B90102C0660F771F8A95E2F7CA
:10108000CB01842B8C9351C0A5E3B0E0E5E3F0E005
:101090008081482F8B81282F30E081E090E002C0D2
:1010A000880F991F2A95E2F7809584238C93A5E3F6
:1010B000B0E0E5E3F0E08081482F8C81282F30E01C
:1010C0008B81882F90E0B90102C0660F771F8A9547
:1010D000E2F7CB01842B8C9328C0A2E3B0E0E2E3DB
:1010E000F0E08081482F8B81282F30E081E090E074
:1010F00002C0880F991F2A95E2F7809584238C936C
:10110000A2E3B0E0E2E3F0E08081482F8C81282F59
:1011100030E08B81882F90E0B90102C0660F771F05
:101120008A95E2F7CB01842B8C93198202C082E06E
:101130008983898126960FB6F894DEBF0FBECDBF96
:10114000CF91DF910895DF93CF9300D000D00F921D
:10115000CDB7DEB78A836B8381E089838A8184304F
:1011600008F074C08B81883008F070C08A81282F05
:1011700030E03D832C838C819D818130910549F144
:101180002C813D81223031052CF48C819D8100978A
:1011900061F05AC02C813D812230310571F18C8182
:1011A0009D8183309105E9F14FC0ABE3B0E0EBE303
:1011B000F0E08081482F8B81282F30E081E090E0A3
:1011C000022E02C0880F991F0A94E2F784278C939D
:1011D0003BC0A8E3B0E0E8E3F0E08081482F8B81DA
:1011E000282F30E081E090E0022E02C0880F991F86
:1011F0000A94E2F784278C9327C0A5E3B0E0E5E3E7
:10120000F0E08081482F8B81282F30E081E090E052
:10121000022E02C0880F991F0A94E2F784278C934C
:1012200013C0A2E3B0E0E2E3F0E08081482F8B81BD
:10123000282F30E081E090E0022E02C0880F991F35
:101240000A94E2F784278C93198202C082E0898392
:1012500089810F900F900F900F900F90CF91DF9199
:101260000895DF93CF93CDB7DEB727970FB6F894E5
:10127000DEBF0FBECDBF8A836B835D834C8381E06D
:1012800089838C819D81009709F47DC08A81843097
:1012900008F076C08B81883008F072C08A81282FD0
:1012A00030E03F832E834E815F814130510559F1FB
:1012B0008E819F818230910534F42E813F812115EA
:1012C000310569F05BC04E815F814230510579F193
:1012D0008E819F818330910509F43DC04FC0E9E3C1
:1012E000F0E08081282F30E08B81882F90E0A901E9
:1012F00002C0559547958A95E2F7CA018170EC8145
:10130000FD8180833BC0E6E3F0E08081282F30E060
:101310008B81882F90E0A90102C0559547958A9549
:10132000E2F7CA018170EC81FD81808327C0E3E38D
:10133000F0E08081282F30E08B81882F90E0A90198
:1013400002C0559547958A95E2F7CA018170EC81F4
:10135000FD81808313C0E0E3F0E08081282F30E03E
:101360008B81882F90E0A90102C0559547958A95F9
:10137000E2F7CA018170EC81FD818083198205C08A
:1013800082E0898302C083E08983898127960FB632
:10139000F894DEBF0FBECDBFCF91DF910895DF93EC
:1013A000CF930F92CDB7DEB71982A7E2B0E0E7E2A4
:1013B000F0E0808180648C93A7E2B0E0E7E2F0E0A7
:1013C000808180628C93A6E2B0E0E6E2F0E080816A
:1013D00087608C93A6E2B0E0E6E2F0E0808180686E
:1013E0008C93A6E2B0E0E6E2F0E080818F7D8C9302
:1013F00089810F90CF91DF910895DF93CF9300D033
:10140000CDB7DEB78A8381E089838A818830B8F4DA
:10141000A6E2B0E0E6E2F0E0808180648C93A7E28F
:10142000B0E0E7E2F0E08081887F8C93A7E2B0E053
:10143000E7E2F0E090818A81892B8C93198289817F
:101440000F900F90CF91DF910895DF93CF9300D04D
:101450000F92CDB7DEB79B838A8381E08983E6E272
:10146000F0E080818295869586958370882F90E044
:1014700081709070882399F7E4E2F0E08081829592
:10148000869586958370882F90E0EA81FB81918311
:101490008083EA81FB8120813181E5E2F0E0808177
:1014A000882F90E0880F991F880F991F822B932B0C
:1014B000EA81FB8191838083198289810F900F904B
:1014C0000F90CF91DF910895DF93CF9300D0CDB7E8
:1014D000DEB78A8381E089838A81883050F5A6E26D
:1014E000B0E0E6E2F0E080818F7D8C93A6E2B0E090
:1014F000E6E2F0E0808180628C93A0E5B0E0E0E578
:10150000F0E080818F718C93A0E5B0E0E0E5F0E041
:101510008081282F8A81882F90E0880F991F8295DB
:101520009295907F9827807F9827822B8C931982A1
:1015300002C082E0898389810F900F90CF91DF9163
:101540000895DF93CF93CDB7DEB7A6E2B0E0E6E231
:10155000F0E080818F7D8C9380E0CF91DF910895C2
:10156000DF93CF93CDB7DEB7A6E2B0E0E6E2F0E0DE
:101570008081877F8C93A6E2B0E0E6E2F0E0808194
:1015800088608C9381E0CF91DF910895DF93CF93B2
:10159000CDB7DEB7A6E2B0E0E6E2F0E08081877F7B
:1015A0008C9381E0CF91DF910895DF93CF9300D0AA
:1015B000CDB7DEB79A83898389819A81909387001A
:1015C0008093860080E00F900F90CF91DF91089577
:1015D0001F920F920FB60F9211242F933F934F93A8
:1015E0005F936F937F938F939F93AF93BF93EF938B
:1015F000FF93DF93CF9300D0CDB7DEB78091860005
:1016000090918700009729F0E0918600F091870083
:1016100009950F900F90CF91DF91FF91EF91BF91BE
:10162000AF919F918F917F916F915F914F913F917A
:101630002F910F900FBE0F901F9018950F931F932F
:10164000DF93CF93CDB7DEB7CC56D0400FB6F8942A
:10165000DEBF0FBECDBF0E94B8060E94CF090E9418
:10166000A30583E061E041E00E94CB06FE01E15A60
:10167000FF4F80E090E0AAEFB3E480839183A283E0
:10168000B3838E01055A1F4FFE01E15AFF4F60815F
:1016900071818281938120E030E04AE755E40E9425
:1016A0001F02DC01CB01F80180839183A283B38305
:1016B000FE01E55AFF4F608171818281938120E0B4
:1016C00030E040E85FE30E947903882344F4FE01A0
:1016D000E75AFF4F81E090E09183808364C0FE0170
:1016E000E55AFF4F608171818281938120E03FEF55
:1016F0004FE757E40E94190318160CF043C0FE018F
:10170000E15AFF4F608171818281938120E030E056
:1017100040E251E40E941F02DC01CB018E01075A16
:101720001F4FBC01CD010E944900DC01CB01F80133
:10173000918380831FC0FE01E95AFF4F80E991E049
:1017400091838083FE01E95AFF4F80819181019747
:10175000F1F7FE01E95AFF4F91838083DE01A75A1A
:10176000BF4FFE01E75AFF4F80819181019711968B
:101770009C938E93FE01E75AFF4F808191810097E1
:10178000D1F627C08E01075A1F4FFE01E55AFF4FC1
:1017900060817181828193810E944900DC01CB01CB
:1017A000F80191838083DE01AB5ABF4FFE01E75AF7
:1017B000FF4F808191818D939C93FE01EB5AFF4FE7
:1017C000808191810197F1F7FE01EB5AFF4F9183E0
:1017D000808380E00E94FD09CE018D599F4F0E94B9
:1017E000250AFE01EF5AFF4F80E090E0A8E4B2E442
:1017F00080839183A283B3838E01035B1F4FFE011D
:10180000EF5AFF4F608171818281938120E030E047
:101810004AE755E40E941F02DC01CB01F8018083F6
:101820009183A283B383FE01E35BFF4F60817181EB
:101830008281938120E030E040E85FE30E947903F9
:10184000882344F4FE01E55BFF4F81E090E0918343
:10185000808364C0FE01E35BFF4F60817181828100
:10186000938120E03FEF4FE757E40E9419031816D9
:101870000CF043C0FE01EF5AFF4F608171818281FD
:10188000938120E030E040E251E40E941F02DC013D
:10189000CB018E01055B1F4FBC01CD010E944900A9
:1018A000DC01CB01F801918380831FC0FE01E75B5F
:1018B000FF4F80E991E091838083FE01E75BFF4F5A
:1018C000808191810197F1F7FE01E75BFF4F9183E2
:1018D0008083DE01A55BBF4FFE01E55BFF4F80818A
:1018E0009181019711969C938E93FE01E55BFF4FCA
:1018F000808191810097D1F627C08E01055B1F4F33
:10190000FE01E35BFF4F60817181828193810E94C0
:101910004900DC01CB01F80191838083DE01A95BE2
:10192000BF4FFE01E55BFF4F808191818D939C93BA
:10193000FE01E95BFF4F808191810197F1F7FE0184
:10194000E95BFF4F9183808381E00E94FD09CE0116
:101950008B599F4F0E94250AFE01ED5BFF4F80E0EF
:1019600090E0A8E4B2E480839183A283B3838E01E4
:10197000015C1F4FFE01ED5BFF4F60817181828131
:10198000938120E030E04AE755E40E941F02DC0129
:10199000CB01F80180839183A283B383FE01FF967C
:1019A000608171818281938120E030E040E85FE3D3
:1019B0000E94790388232CF481E090E09EAF8DAFE4
:1019C00046C0FE01FF96608171818281938120E093
:1019D0003FEF4FE757E40E941903181664F5FE0124
:1019E000ED5BFF4F608171818281938120E030E067
:1019F00040E251E40E941F02DC01CB01BC01CD0199
:101A00000E944900DC01CB019EAF8DAF0FC080E981
:101A100091E09CAF8BAF8BAD9CAD0197F1F79CAF84
:101A20008BAF8DAD9EAD01979EAF8DAF8DAD9EAD51
:101A3000009769F716C0FE01FF966081718182816F
:101A400093810E944900DC01CB019EAF8DAF8DAD2B
:101A50009EAD9AAF89AF89AD9AAD0197F1F79AAF74
:101A600089AF82E00E94FD09CE0189599F4F0E94F3
:101A7000250A80E090E0A8E4B2E48DAB9EABAFAB6A
:101A8000B8AF6DA97EA98FA998AD20E030E04AE7F4
:101A900055E40E941F02DC01CB0189AB9AABABABD2
:101AA000BCAB69A97AA98BA99CA920E030E040E8E9
:101AB0005FE30E94790388232CF481E090E098ABE7
:101AC0008FA73FC069A97AA98BA99CA920E03FEF05
:101AD0004FE757E40E94190318164CF56DA97EA92B
:101AE0008FA998AD20E030E040E251E40E941F024F
:101AF000DC01CB01BC01CD010E944900DC01CB011E
:101B000098AB8FA70FC080E991E09EA78DA78DA508
:101B10009EA50197F1F79EA78DA78FA598A901977C
:101B200098AB8FA78FA598A9009769F714C069A9EA
:101B30007AA98BA99CA90E944900DC01CB0198AB32
:101B40008FA78FA598A99CA78BA78BA59CA501976C
:101B5000F1F79CA78BA783E00E94FD09CE0187596E
:101B60009F4F0E94250A80E090E0A8E4B2E48FA392
:101B700098A7A9A7BAA76FA178A589A59AA520E0DB
:101B800030E04AE755E40E941F02DC01CB018BA341
:101B90009CA3ADA3BEA36BA17CA18DA19EA120E0BF
:101BA00030E040E85FE30E94790388232CF481E071
:101BB00090E09AA389A33FC06BA17CA18DA19EA1B7
:101BC00020E03FEF4FE757E40E94190318164CF549
:101BD0006FA178A589A59AA520E030E040E251E404
:101BE0000E941F02DC01CB01BC01CD010E94490013
:101BF000DC01CB019AA389A30FC080E991E098A3EF
:101C00008F8F8F8D98A10197F1F798A38F8F89A15E
:101C10009AA101979AA389A389A19AA1009769F72C
:101C200014C06BA17CA18DA19EA10E944900DC0182
:101C3000CB019AA389A389A19AA19E8F8D8F8D8DA7
:101C40009E8D0197F1F79E8F8D8F84E00E94FD0994
:101C5000CE0185599F4F0E94250A80E090E0A8E4BC
:101C6000B2E4898F9A8FAB8FBC8F698D7A8D8B8D03
:101C70009C8D20E030E04AE755E40E941F02DC0121
:101C8000CB018D8B9E8BAF8BB88F6D897E898F89B1
:101C9000988D20E030E040E85FE30E9479038823DC
:101CA0002CF481E090E09C8B8B8B3FC06D897E890A
:101CB0008F89988D20E03FEF4FE757E40E9419038A
:101CC00018164CF5698D7A8D8B8D9C8D20E030E057
:101CD00040E251E40E941F02DC01CB01BC01CD01B6
:101CE0000E944900DC01CB019C8B8B8B0FC080E9EB
:101CF00091E09A8B898B89899A890197F1F79A8B60
:101D0000898B8B899C8901979C8B8B8B8B899C8978
:101D1000009769F714C06D897E898F89988D0E941C
:101D20004900DC01CB019C8B8B8B8B899C89988B28
:101D30008F878F8598890197F1F7988B8F87FE01A0
:101D4000ED59FF4F80819181F3E080329F0768F564
:101D5000FE01EB59FF4F8081918123E08032920791
:101D600020F5FE01E959FF4F80819181E3E0813246
:101D70009E07D8F0FE01E759FF4F80819181F3E083
:101D800081329F0790F0FE01E559FF4F80819181DC
:101D900023E08032920748F480E690E00E94230618
:101DA00083E690E00E942306AFC1FE01ED59FF4F8C
:101DB00080819181E3E080329E0768F5FE01EB5956
:101DC000FF4F80819181F3E081329F0720F1FE0176
:101DD000E959FF4F8081918123E080329207D8F446
:101DE000FE01E759FF4F80819181E3E080329E0739
:101DF00090F4FE01E559FF4F80819181F3E081323B
:101E00009F0748F086E690E00E94230683E690E074
:101E10000E94230679C1FE01ED59FF4F8081918117
:101E200023E08032920768F5FE01EB59FF4F808175
:101E30009181E3E081329E0720F1FE01E959FF4FD5
:101E400080819181F3E080329F07D8F4FE01E75949
:101E5000FF4F8081918123E08032920790F4FE0150
:101E6000E559FF4F80819181E3E080329E0748F47D
:101E700089E690E00E94230683E690E00E94230614
:101E800043C1FE01ED59FF4F80819181F3E0803223
:101E90009F0768F5FE01EB59FF4F8081918123E098
:101EA0008032920720F5FE01E959FF4F8081918130
:101EB000E3E080329E07D8F4FE01E759FF4F8081AE
:101EC0009181F3E080329F0790F4FE01E559FF4FC6
:101ED0008081918123E08132920748F08CE690E086
:101EE0000E94230683E690E00E9423060DC1FE01B6
:101EF000ED59FF4F80819181E3E081329E0768F1C7
:101F0000FE01EB59FF4F80819181F3E080329F0702
:101F100020F5FE01E959FF4F8081918123E0813254
:101F20009207D8F0FE01E759FF4F80819181E3E0ED
:101F300081329E0790F0FE01E559FF4F808191812B
:101F4000F3E080329F0748F48FE690E00E9423067A
:101F500083E690E00E942306D7C0FE01ED59FF4FB3
:101F60008081918123E08132920768F1FE01EB5973
:101F7000FF4F80819181E3E081329E0720F1FE01D5
:101F8000E959FF4F80819181F3E080329F07D8F4B7
:101F9000FE01E759FF4F8081918123E08032920753
:101FA00090F4FE01E559FF4F80819181E3E0813299
:101FB0009E0748F082E790E00E94230683E690E0C7
:101FC0000E942306A1C0FE01ED59FF4F808191813F
:101FD000F3E081329F0768F1FE01EB59FF4F8081EA
:101FE000918123E08132920720F1FE01E959FF4FF0
:101FF00080819181E3E080329E07D8F4FE01E759A9
:10200000FF4F80819181F3E080329F0790F4FE01C1
:10201000E559FF4F8081918123E08032920748F497
:1020200085E790E00E94230683E690E00E94230665
:102030006BC0FE01ED59FF4F80819181E3E0813259
:102040009E0768F1FE01EB59FF4F80819181F3E01B
:1020500080329F0720F5FE01E959FF4F8081918171
:1020600023E080329207D8F4FE01E759FF4F8081C8
:102070009181E3E080329E0790F4FE01E559FF4F25
:1020800080819181F3E081329F0748F088E790E0FA
:102090000E94230683E690E00E94230635C0FE01DD
:1020A000ED59FF4F8081918123E08032920760F5E6
:1020B000FE01EB59FF4F80819181E3E080329E0762
:1020C00018F5FE01E959FF4F80819181F3E08032DC
:1020D0009F07D0F4FE01E759FF4F8081918123E0F3
:1020E0008032920788F4FE01E559FF4F808191818B
:1020F000E3E080329E0740F48BE790E00E942306E5
:1021000083E690E00E94230680E090E0AAE7B4E432
:102110008B879C87AD87BE876B857C858D859E85EB
:1021200020E030E04AE755E40E941F02DC01CB01C9
:102130008F839887A987BA876F81788589859A85E3
:1021400020E030E040E85FE30E94790388232CF42C
:1021500081E090E09E838D833FC06F817885898583
:102160009A8520E03FEF4FE757E40E9419031816C5
:102170004CF56B857C858D859E8520E030E040E2C6
:1021800051E40E941F02DC01CB01BC01CD010E9481
:102190004900DC01CB019E838D830FC080E991E073
:1021A0009C838B838B819C810197F1F79C838B832C
:1021B0008D819E8101979E838D838D819E81009765
:1021C00069F754CA6F81788589859A850E9449008C
:1021D000DC01CB019E838D838D819E819A838983CF
:1021E00089819A810197F1F79A8389833FCA2F9257
:1021F0003F924F925F926F927F928F929F92AF9297
:10220000BF92CF92DF92EF92FF920F931F93CF93E3
:10221000DF93CDB7DEB7CA1BDB0B0FB6F894DEBF7A
:102220000FBECDBF09942A88398848885F846E84A0
:102230007D848C849B84AA84B984C884DF80EE80EA
:10224000FD800C811B81AA81B981CE0FD11D0FB6F3
:10225000F894DEBF0FBECDBFED010895F894FFCF17
:102260004E46000D0A004E42004E4C004E520044B5
:102270004600444200444C004452005354000000C5
:0622800000000000000058
:00000001FF
